{
  "transactions": [
    {
      "hash": "0x0864862dd91fa815a11eeaf231727f7e3ee1c8cc47bc53cbf1560b13d0607ed9",
      "transactionType": "CALL",
      "contractName": null,
      "contractAddress": "0x1fd734c9c78e9c34238c2b5f4e936368727326f6",
      "function": "registerAgent(address,string)",
      "arguments": [
        "0x7cbD25A489917C3fAc92EFF1e37C3AE2afccbcf2",
        "YieldAgentCompound"
      ],
      "transaction": {
        "from": "0xc760ab37e00082202e1659c256e01372f1739886",
        "to": "0x1fd734c9c78e9c34238c2b5f4e936368727326f6",
        "gas": "0x19dce",
        "value": "0x0",
        "input": "0x22b833d80000000000000000000000007cbd25a489917c3fac92eff1e37c3ae2afccbcf2000000000000000000000000000000000000000000000000000000000000004000000000000000000000000000000000000000000000000000000000000000125969656c644167656e74436f6d706f756e640000000000000000000000000000",
        "nonce": "0x4d",
        "chainId": "0xaa36a7"
      },
      "additionalContracts": [],
      "isFixedGasLimit": false
    }
  ],
  "receipts": [
    {
      "status": "0x1",
      "cumulativeGasUsed": "0x1266844",
      "logs": [
        {
          "address": "0x1fd734c9c78e9c34238c2b5f4e936368727326f6",
          "topics": [
            "0xda816ca2fc37b9eecec62ae8263008ec6be1afb38dc28bc9c7c51d7e348da9c2",
            "0x0000000000000000000000007cbd25a489917c3fac92eff1e37c3ae2afccbcf2"
          ],
          "data": "0x000000000000000000000000000000000000000000000000000000000000002000000000000000000000000000000000000000000000000000000000000000125969656c644167656e74436f6d706f756e640000000000000000000000000000",
          "blockHash": "0x6f8fc0bfee9b05659db8e43f5d4acab4b59378d4d62405e141fec93eee019f0d",
          "blockNumber": "0x98225c",
          "blockTimestamp": "0x6958d7f0",
          "transactionHash": "0x0864862dd91fa815a11eeaf231727f7e3ee1c8cc47bc53cbf1560b13d0607ed9",
          "transactionIndex": "0x6b",
          "logIndex": "0xb8",
          "removed": false
        }
      ],
      "logsBloom": "0x00000000040000000000000000000000000000000000000000000000000000000000000000001000000000000000000000000000000000000000000000000000000000000000000000000000000000000000000000000200000000000000000000000000000000000000000000000000000000000000000000000000010000000000000000000000000000000000000000000000000000000000000000000000000000000000000000000000000000000080000000000000000000000000000000000000000010008000000000000000000000000000000000000000000000000000000000000000004000000000000000000000000000000000000040000000",
      "type": "0x2",
      "transactionHash": "0x0864862dd91fa815a11eeaf231727f7e3ee1c8cc47bc53cbf1560b13d0607ed9",
      "transactionIndex": "0x6b",
      "blockHash": "0x6f8fc0bfee9b05659db8e43f5d4acab4b59378d4d62405e141fec93eee019f0d",
      "blockNumber": "0x98225c",
      "gasUsed": "0x12b97",
      "effectiveGasPrice": "0xf4248",
      "from": "0xc760ab37e00082202e1659c256e01372f1739886",
      "to": "0x1fd734c9c78e9c34238c2b5f4e936368727326f6",
      "contractAddress": null
    }
  ],
  "libraries": [],
  "pending": [],
  "returns": {},
  "timestamp": 1767430129481,
  "chain": 11155111,
  "commit": "3489244"
}